:020000040000FA
:10000000831605140301003086058312860503015B
:1000100055308600AA308D003820AA308D00860C1D
:1000200005180A281328030101308600AA308D0024
:100030003820AA308D00860D382005181628202873
:100040000301F0308600AA308D003820AA308D00E0
:100050008609051823282C280301CC308600AA30F5
:100060008D003820AA308D00860C05182F2807280F
:0A0070008C0B38288D0B382808008F
:04007A00003400341A
:02400E00FA3F77
:00000001FF
